:020000040800F2
:1000000000040020B9010008BB010008BB01000882
:10001000BB010008BB010008BB010008BB010008D0
:10002000BB010008BB010008BB01000889C800082B
:10003000BB010008BB010008BB010008E3DC0008AD
:10004000BB010008BB010008BB010008BB010008A0
:10005000BB010008BB010008D5D90008FDD9000884
:1000600025DA00084DDA000875DA0008BB0100083F
:10007000BB010008BB0100087DE30008BB010008CC
:100080009DDA0008BB010008BB010008BB010008A5
:10009000BB010008BB010008BB010008BB01000850
:1000A000BB010008BB01000891DF0008A5DF0008C4
:1000B000BB010008BB010008BB010008BB01000830
:1000C00001DD000801DB0008BB010008BB010008DE
:1000D000BB010008BB010008BB010008BB01000810
:1000E00072B6264880F30888254880F30988254899
:1000F00025490860022080F31488BFF36F8F0CF04D
:10010000F1F80BF0A9FC4FF0553020491B4A914201
:100110003CBF41F8040BFAE71D49194A91423CBF24
:1001200041F8040BFAE71B491B4A1C4B9A423EBF9D
:1001300051F8040B42F8040BF8E700201849194A5B
:1001400091423CBF41F8040BFAE70CF0CFF80CF0F9
:10015000CAF8154C154DAC4203DA54F8041B884715
:10016000F9E706F0EFFB124C124DAC4203DA54F8FB
:10017000041B8847F9E70CF0B7B800000004002022
:10018000000C00200000000808ED00E00000002046
:100190000004002030F80008000C0020EC120020C1
:1001A000F012002088480020E0000008E00000086D
:1001B000E0000008E000000892E700F000F8FEE729
:1001C0002DE9F04FC1F80CD0C3689D46BDE8F08F13
:1001D000002383F311882846A04700200CF05AFA28
:1001E000FEE70CF0B1F900DFFEE7000053B94AB9B1
:1001F000002908BF00281CBF4FF0FF314FF0FF302F
:1002000000F07AB9ADF1080C6DE904CE00F01AF8EF
:10021000DDF804E0DDE9022304B07047430803F091
:100220005533C01A830803F0333300F033301844D9
:1002300000EB101000F00F3000EB002000EB00404E
:10024000000E70472DE9F047089D0E4604468E4685
:10025000002B4CD18A429446B2FA82F362D953B150
:1002600002FA03FCC3F1200201FA03FE20FA02F2B3
:1002700042EA0E0E9C404FEA1C47BEFBF7F11FFA04
:100280008CF607FB11EE01FB06F0220C42EA0E424F
:1002900090420AD91CEB020201F1FF3E80F00E8170
:1002A000904240F20B8102396244121AB2FBF7F01D
:1002B00007FB102200FB06F6A4B244EA0244A64261
:1002C0000AD91CEB040400F1FF3280F0F980A64249
:1002D00040F2F6806444023840EA01400021A41B49
:1002E0001DB1DC400023C5E90043BDE8F0878B4227
:1002F00005D90DB1C5E9000100210846F5E7B3FABB
:1003000083F1002942D1B34202D3824200F2EE804F
:10031000841A66EB030201209646002DE5D0C5E95C
:10032000004EE2E7002B40F08C80881A0121170C68
:1003300096B2B0FBF7FE07FB1E00220C42EA004219
:1003400006FB0EF0904208D91CEB02020EF1FF38BA
:1003500002D2904200F2CC80C646121AB2FBF7F0ED
:1003600007FB102200FB06F6A4B244EA0244A642B0
:1003700008D91CEB040400F1FF3202D2A64200F2BD
:10038000B2801046A41B40EA0E40A9E7C1F1200745
:100390008B4022FA07FC4CEA030C26FA07FA4FEAD4
:1003A0001C48BAFBF8FE06FA01F308FB1EAA1FFA66
:1003B0008CF620FA07F400FA01F90EFB06F023434D
:1003C0001C0C44EA0A44A04202FA01F20BD91CEBCD
:1003D00004040EF1FF3A80F08480A04240F2818054
:1003E000AEF1020E6444241A98B2B4FBF8F308FB91
:1003F000134403FB06F640EA0444A64208D91CEB6A
:10040000040403F1FF3068D2A64266D9023B64447B
:1004100043EA0E40A41BA0FB02E6B4427346B0467A
:1004200052D34FD05DB1B9EB030264EB080404FA78
:1004300007F722FA01F31F43CC40C5E900740021FD
:1004400053E702FA03FCC3F12000C1404FEA1C4706
:10045000B1FBF7FE07FB1E1124FA00F09E4030436B
:10046000020C1FFA8CF642EA01420EFB06F19142A1
:1004700004FA03F409D91CEB02020EF1FF382ED264
:1004800091422CD9AEF1020E6244521AB2FBF7F13E
:1004900007FB112280B240EA024001FB06F28242D1
:1004A00008D91CEB000001F1FF3814D2824212D9A6
:1004B00002396044801A41EA0E413AE77146F4E697
:1004C000104609E7F145ADD2BEEB020366EB0C0620
:1004D0000138B046A6E74146ECE7034698E7C64632
:1004E000D3E7D6467FE7644402384BE7084614E773
:1004F000AEF1020E624430E7704700BF38B5124BD0
:1005000004461D682A6B1AB10023C2E9044338BDB2
:10051000182000F00BFA0246286378B100210B2363
:1005200001209381C2E90401084B0949094DC2E940
:10053000011300231560C2E9044338BD4621064B70
:10054000064800F053F800BF000C0020ECDE050068
:1005500034126DE60E33CDAB68F7000880F7000863
:1005600038B5194B1C68226B8AB113691749546955
:1005700003FB01F1164800FB0411A3FB003001331B
:1005800041EB0001C2E9043121F0004038BD1820E0
:1005900000F0CCF90246206388B1012400250B232A
:1005A0000A480C49C2E90445116001460A4D0B4C4A
:1005B00093810B4BC2E90154C2E9043138BD522189
:1005C000084B094800F012F8000C00202DF4515897
:1005D0002D7F954C0E33CDAB34126DE6ECDE05006D
:1005E0002E7F954C68F7000880F70008144600B588
:1005F0001A460A4B0D461B6885B0DE6803464CB1AF
:1006000007490191304607490294009500F0ACF982
:1006100000F040F804490C46F3E700BF000C00204E
:10062000ACF70008BCF70008B8F7000808B5134697
:100630000022FFF7DBFF00BF20F0030110F00300F2
:10064000C0F1000051F8043B00F1040C4FEACC0C5F
:100650006FF000021CBF22FA0CF213434FF0010CA2
:100660004CEA0C2C4CEA0C4CA3EB0C0222EA0302E1
:1006700012EACC1204BF51F8043B0430F4D0C2F1AA
:10068000000102EA0102B2FA82F2C2F11F0200EB9B
:10069000D2007047062008B500F078FD01200DF06B
:1006A0001BF800BF70B5860747D0541E002A3ED005
:1006B0000346CAB201E0013C39D303F8012B9D0780
:1006C000F9D1032C2CD9CDB205EB05250F2C1A46F8
:1006D00005EB054534D9A4F1100C2CF00F0603F1FD
:1006E000100EB6444FEA1C1CC2E90055C2E902557F
:1006F00010327245F8D10CF1010214F00C0F03EB2B
:10070000021204F00F0C13D0ACF1040323F0030326
:100710000433134442F8045B9342FBD10CF003040E
:100720002CB1C9B21C4403F8011BA342FBD170BD1C
:1007300064461346002CF4D1F9E703461446C0E79B
:10074000A446E1E788420ED98B1883420BD900EB0F
:10075000020C002A6DD0624613F801CD994202F8CE
:1007600001CDF9D170470F2A0FD8034602F1FF3CA3
:10077000002A5ED00CF1010C013B8C4411F8012BD6
:10078000614503F8012FF9D1704740EA01039B0747
:1007900050D1A2F1100370B501F1200C23F00F0528
:1007A00001F1100E00F11004AC441B095EF8105C5E
:1007B0000EF1100E44F8105C5EF81C5C103444F826
:1007C0001C5C5EF8185C44F8185C5EF8145CE64546
:1007D00044F8145CEAD1013312F00C0F01EB031161
:1007E00002F00F0400EB031328D08E46043C24F0E3
:1007F00003064FEA940C1E441C1F5EF8045B44F889
:10080000045FB442F9D10CF1010402F0030203EBDE
:10081000840301EB840102F1FF3C4AB10CF1010CAD
:10082000013B8C4411F8012B614503F8012FF9D1EC
:1008300070BD7047034602F1FF3C9BE72246EAE7A2
:10084000844641EA000313F0030349D1403A23D31D
:100850000B6803604B6843608B688360CB68C36040
:100860000B6903614B6943618B698361CB69C36128
:100870000B6A03624B6A43628B6A8362CB6AC36210
:100880000B6B03634B6B43638B6B8363CB6BC363F8
:1008900040304031403ADBD230320BD30B6803603A
:1008A0004B6843608B688360CB68C3601030103145
:1008B000103AF3D20C3205D351F8043B40F8043B14
:1008C000043AF9D2043208D0D2071CBF11F8013B18
:1008D00000F8013B01D30B8803806046704700BFDE
:1008E000082A13D38B07B1D010F00303AED0C3F1A5
:1008F0000403D21ADB071CBF11F8013B00F8013BCF
:10090000A4D331F8023B20F8023B9FE7043AD9D345
:10091000013A11F8013B00F8013BF9D20B78037062
:100920004B7843708B78837060467047024B01466A
:10093000186800F0CBBE00BF000C0020024B01463F
:10094000186800F043BF00BF000C00200CB400B5D5
:1009500083B004AB53F8042B019300F083F803B089
:100960005DF804EB02B070470EB400B5074A82B0E0
:1009700003AB0146106853F8042B019300F072F8A2
:1009800002B05DF804EB03B0704700BF000C00201C
:10099000032A30B415D941EA0004A40784460B4663
:1009A00004D0541E0FE0043A032A08D919466046C1
:1009B00053F8044B5CF8045BA542F4D0F1E76046C1
:1009C0001946541E7AB1431E0139021901E09A42B8
:1009D00009D013F8010F11F801CF6045F7D0A0EB53
:1009E0000C0030BC7047002030BC70479368013B5E
:1009F000002B936005DAD2F818C0634507DB0A299B
:100A000005D01368581C106008461970704700F034
:100A100063B900BF9BB1F8B5134406460F46541E98
:100A20005D1E01E0AC4208D03A46304614F8011F82
:100A3000FFF7DCFF431CF5D1F8BD0020F8BD002016
:100A4000704700BF936810B514461BB918460023C1
:100A5000636010BD00F08EF90023A3600023636083
:100A600010BD00BF2DE9F04FA1B08B4691461C464A
:100A7000049018B1036A002B00F01381BBF80C300E
:100A8000180740F18E80DBF81030002B00F08980D1
:100A9000002343F220020D9399F800300127824E83
:100AA0000794ADF83920002B73D04D4603E015F8BC
:100AB000013F002B7FD0252BF9D1B5EB090A7DD161
:100AC0002B78002B65D000234FF0FF320135CDE9A4
:100AD000092308930B938DF863301E9306E0254697
:100AE000089B801B07FA00F0034308932C4605225D
:100AF00014F8011B304601F0DDF9A1460028EED1C3
:100B0000089BD90644BF20228DF863201A0748BFEE
:100B10002B22297848BF8DF863202A2964D1079AAF
:100B20001168043200290792C0F296800B9169780F
:100B30002E296FD05D4C0322204601F0BBF938B15D
:100B40004022089B001B8240134309F101090893CE
:100B500019F8011B062256488DF8381001F0AAF941
:100B600000287FD0534B002B69D007A900915A462B
:100B70000498514B08A9AFF300800390039B013305
:100B800007D00D9B039A13440D9399F80030002B66
:100B90008BD1BBF80C305B060AD40D9821B0BDE8B0
:100BA000F08F5946049800F091FE00283FF470AF92
:100BB0004FF0FF30F2E7B5EB090AEAD009F1FF3850
:100BC00005954546DDF8108001E0A2453ED92C464A
:100BD0005A46404615F8011FFFF708FF023401305E
:100BE000A4EB0904F1D1D4E7A1F13002092A88BFAE
:100BF000A9469DD80B9B00E00134217803EB8303C9
:100C000002EB4303A1F13002092AF5D92E29A146AE
:100C10000B938FD199F801102A292DD1079B09F147
:100C200002001A680433002A0793B8BF4FF0FF335D
:100C300099F8021009928146B8BF09937AE7079B99
:100C4000073323F00703083307939AE70D99059DAF
:100C500051442B780D9134E7494243F002030B9144
:100C6000089364E707A900915A460498124B08A913
:100C700000F052FF039081E70023A1F13002092A1E
:100C800009F1010909933FF655AF19F8011F03EB6C
:100C9000830302EB4303A1F13002092AF5D909933A
:100CA00048E700F0F9FBE9E6ECF70008F4F7000884
:100CB000F8F7000800000000150A00088C4600B58F
:100CC00086461346034A714610685DF804EB624697
:100CD000FFF7C8BE000C0020F8B506460D461446C6
:100CE00010B1036A002B37D0A269A389A2601A074A
:100CF00019D52369BBB122686169D31AEDB2994253
:100D00002F4620DD0133A1680139A160511C21600B
:100D1000157062699A420DD0A389DB0701D50A2DAF
:100D200008D03846F8BD2146304600F0CFFD38B92E
:100D30002369E0E72146304600F060FC0028F0D04F
:100D40004FF0FF37EDE72146304600F057FC002812
:100D5000F6D101232268D6E700F09EFBC4E700BF6E
:100D600003460A46024908681946FFF7B5BF00BFA7
:100D7000000C00209368002B00F0F0802DE9F04F6C
:100D8000B1F90CC090461CF0080F81460C4683B0A8
:100D90002BD00B694BB31CF00207D8F8006032D09F
:100DA0004FF0000A5546D4F828B0216AAB4FC5B1C0
:100DB000BD422B46524628BF3B464846D8470028EE
:100DC00040F3C280D8F8083082441B1A2D1AC8F8A4
:100DD0000830002B00F0AE80D4F828B0216A002D36
:100DE000E6D1D6E900A50836E1E72146484600F0FD
:100DF0006DFD002840F0AD80B4F90CC0D8F800605B
:100E00001CF00207CCD11CF0010A63D157462368BD
:100E1000A16818468B46002F58D01CF4007F00F0C4
:100E2000B180B9420A4600F2DD801CF4906F2FD0E9
:100E3000216962695D1A02EB420202EBD2726B1CFD
:100E400052103B44934292BF93469B461A461CF471
:100E5000806F00F0E6801146484600F037FC00281D
:100E600000F0F5802A4621690190FFF7E9FCA2898C
:100E7000019B22F4906242F08002A2815819C4F8CA
:100E800014B0ABEB05053A46BB462361A560206074
:100E90003D46002751460192FFF754FCA1682368A4
:100EA000019AA1EB0B011A44A1602260D8F8083026
:100EB000AA445B1BC8F80830002B3BD02368A1680C
:100EC00018468B46B4F90CC0002FA6D1D6E900A76E
:100ED00008369EE73846BB463D46002D40D00028E8
:100EE00045D03A46D4E904C32068AA4228BF2A461E
:100EF0006045A16804D901EB030A524500F38280E2
:100F0000934272DC5A464846216AD4F828C0E0472A
:100F1000B0F1000A18DDB7EB0A070FD00120D8F8AE
:100F20000830D344A3EB0A03A5EB0A05C8F8083040
:100F3000002BD2D1002003B0BDE8F08F21464846F7
:100F400000F05CFB0028EAD0B4F90C3043F0400319
:100F5000A3814FF0FF3003B0BDE8F08F0020704751
:100F6000756833460836002DFAD0D3F800B02A460B
:100F70000A21584600F09EFF002865D00130A0EB02
:100F80000B07AEE722699A4214D36569BD4211D8B6
:100F90006FF00043BB4228BF3B4693FBF5F352463C
:100FA00005FB03F34846A56A216AA847051ECBDD69
:100FB0007F1B7BE7B94228BF39460D46184651468C
:100FC0002A46FFF7BFFBA1682368491B2B44A16099
:100FD00023600029ECD12146484600F00FFB002891
:100FE000E6D0B1E7BB463A4652E759460192FFF7D1
:100FF000A9FB019AA36892469B1AA3602368134435
:10100000236088E759465246FFF79CFB2368214638
:1010100053444846236000F0F1FA00283FF47BAFC8
:1010200092E7484600F0B4FC034600287FF426AF60
:101030004846216900F0CAFB0C22B4F90C30C9F80B
:10104000002023F0800381E76A1C17464AE70C2240
:10105000B4F90C30C9F8002078E700BF00FCFF7F2E
:1010600038B5C46B0CB1002038BD8021054600F0B6
:101070002DFB0246E86330B1031F7C3243F8044F76
:101080009342FBD1EFE74FF0FF3038BD30B51F2959
:10109000054683B008D8C36B0C4653B153F82400FF
:1010A00043F8242003B030BD162303604FF0FF3017
:1010B000F8E78021019200F009FB019A0346E863FA
:1010C0000028F3D0011F00F17C05002041F8040F37
:1010D000A942FBD1E2E700BF1F2938B505461ED85B
:1010E000C26B0C466AB152F8213053B1012B06D0C5
:1010F000591C10D00021204642F8241098470020A7
:1011000038BD284600F088FF224601462846BDE843
:10111000384000F06DBF162301202B6038BD162328
:101120004FF0FF302B6038BD1F292BD838B5C36B6B
:101130000C460546A3B153F8242003EB84034AB1BF
:10114000511C0BD0012A07D0002520461D60904776
:10115000284638BD012038BD032038BD022038BDE7
:10116000802100F0B3FA0346E86340B100201A1F63
:1011700003F17C0142F8040F8A42FBD1DBE74FF018
:10118000FF3038BD4FF0FF30704700BF38B5134B0C
:101190001F281D681DD8EA6B044662B152F8203042
:1011A0004BB1012B05D0591C0FD0002142F8201063
:1011B0009847002038BD284600F02EFF2246014601
:1011C0002846BDE8384000F013BF162301202B60ED
:1011D00038BD16234FF0FF302B6038BD000C0020C7
:1011E000114B1F2870B51E6808D8F36B04460D46D6
:1011F0004BB153F8240043F8245070BD16233360DC
:101200004FF0FF3070BD8021304600F05FFA03469A
:10121000F0630028F4D00021021F7C3042F8041F44
:101220008242FBD1E5E700BF000C002038B50B4B34
:101230001D68EC6B0CB1002038BD8021284600F001
:1012400045FAE86338B1031F00F17C0243F8044F0C
:101250009342FBD1EFE74FF0FF3038BD000C002088
:1012600038B5174B1F281D6826D80446E86BA0B177
:1012700050F8242000EB84034AB1511C0BD0012A02
:1012800007D0002520461D609047284638BD012024
:1012900038BD032038BD022038BD8021284600F02B
:1012A00015FAE86340B10021031F00F17C0243F806
:1012B000041F9342FBD1DBE74FF0FF3038BD00BF86
:1012C000000C002000207047024A0349034800F048
:1012D000DBBA00BF500C0020FD150008040C0020F4
:1012E0000C4B416810B59942044601D000F086F9D4
:1012F000A168094B994202D0204600F07FF9E168CD
:10130000064B994204D02046BDE8104000F076B963
:1013100010BD00BFF012002058130020C0130020A1
:10132000002070472DE9F84300250423294C2A4961
:101330000822C4F8381104F15C002946DFF89C90BB
:10134000DFF89C80274F284EC4E90335C4E90055D7
:10135000C4E90555A5606566FFF7A4F9234B08228B
:10136000294604F1C4006367C4E90849C4E90A874F
:10137000C4E91A55C4E91E5526632567C4F8CC5044
:10138000C4F88050FFF78EF9194B2946C4F8DC30B9
:10139000082204F1680304F59670C4F88830C4E9A3
:1013A0002398C4E92576C4E93455C4E93855C4F80E
:1013B000D850C4F83451C4F8E850FFF773F904F179
:1013C000D003C4E93D98C4E93F76C4F8F030BDE8E5
:1013D000F88300BFF0120020C91200084D1F00085A
:1013E000751F0008B51F0008D91F0008090001007B
:1013F00012000200F8B5254B0646D3F83831002B11
:101400003CD0234FD7E90134013B04D51DE05A1CE1
:1014100004F1680419D0B4F90C50013B002DF6D149
:101420001C4B08222946C4E90155C4E90455E36070
:1014300065662560A56104F15C00FFF733F9C4E936
:101440000D55C4E912552046F8BD3D680DB12F4633
:10145000D8E74FF4D671304600F038F9044680B131
:1014600004230560294625460C304FF4D072A06055
:101470006360FFF717F93C602F46C3E7FFF752FFA1
:10148000BFE70C2338603360DDE700BFF0120020B7
:10149000500C00200100FFFF036A03B17047044BAA
:1014A000044AD3F838310262002BF7D13AE700BF83
:1014B000F0120020E1120008704700BF704700BF23
:1014C0000020024A024900F0DFB900BF500C0020A2
:1014D000C51200080020024A024900F0D5B900BF39
:1014E000500C002021130008F8B5B1F90C300C465F
:1014F0001E07074639D44A68002A53DDE56A002DE5
:1015000031D000223E683A6013F48052216A55D1EE
:1015100001233846A847451C024663D0B4F90C3075
:10152000E56A216A580705D56368D21A636B0BB167
:10153000236CD21A00233846A847421C40D0002210
:10154000236962602360A389DB0400D56065616B59
:101550003E6041B104F14403994202D0384600F0A4
:1015600035F9002363630020F8BD0E69002EFAD020
:101570009B0718BF00230D6808BF4B690E60AD1BA9
:101580008B600CE02B463246D4F828C03846216ADE
:10159000E047B0F1000CA5EB0C05664406DD002D1C
:1015A000F0DCE0E70A6C002AA8DCDCE7B4F90C30D8
:1015B00043F040034FF0FF30A381F8BD626DB1E707
:1015C0003968B4F90C301D29F2D80B4ACA40D50746
:1015D000EED50022626022692260DA04B7D50029C4
:1015E000B4D0B4E73B68002B98D01D2B01D0162B4C
:1015F000DCD13E60B7E700BF010040200B69B3B10A
:1016000010B5044682B008B1036A5BB1B1F90C3081
:1016100013B9002002B010BD204602B0BDE8104052
:10162000FFF762BF0191FFF737FF0199EEE7002056
:10163000704700BFB8B138B50D4A03690446156854
:101640002BB10DB12B6A53B1B4F90C300BB900209A
:1016500038BD21462846BDE83840FFF745BF28463B
:10166000FFF71AFFF0E7034A0349044800F00CB9FA
:10167000000C0020500C0020FD150008040C002078
:1016800070B5114E054633680C46BBB1214628465D
:101690000CF006F8431C01460CD0C41C24F00304D3
:1016A000A04205D02846611A0BF0FAFF013001D0A4
:1016B000204670BD4FF0FF34204670BD19460BF038
:1016C000EFFF3060E2E700BF2C1400202DE9F84363
:1016D000CD1C25F0030508350C2D38BF0C25002D39
:1016E000064618DBA94216D8DFF8DC8000F056FB6E
:1016F000D8F80420A2B1144603E0636822467BB107
:101700001C4623685B1BF8D40B2B1FD894426368DC
:1017100054D053600CE00C2333600020BDE8F88304
:1017200029463046FFF7ACFF431C044619D005603C
:10173000304600F035FB04F10B00231D20F00700BC
:10174000C21A1CBF1B1AA350BDE8F883611994424A
:10175000256014BF5160C8F80410635163684B6082
:10176000E6E7D8F804701FB33C467F68002FFBD132
:1017700023683946304604EB03090BF091FF81459D
:1017800016D123683046ED1A2946FFF779FF01305C
:101790000ED02368D8F804202B442360536883B10B
:1017A000A34203D01A465B689C42FBD10023B0E7FA
:1017B0000C233046336000F0F3FAAEE7C8F804308B
:1017C000B6E7C8F80470B3E72C140020002950D005
:1017D00038B551F8043C0C1F002BB8BFE41805467F
:1017E00000F0DCFA274A13682BB1A3420CD9216818
:1017F000601883422CD0284663601460BDE83840EE
:1018000000F0CEBAA3420FD81A465B68002BF9D17C
:1018100011685018844217D02CD363605460284656
:10182000BDE8384000F0BCBA11685018A04214D08E
:1018300020D8216860188342EFD118685B6808449B
:10184000C4E900035460EAE723680B441360E6E749
:1018500018685B6808442060CDE720680144501890
:1018600083421160DBD1D3E900040144C2E90014D2
:10187000D5E770470C2328462B60BDE8384000F0C0
:101880008FBA00BF301400202DE9F8434FF0000953
:1018900080460F461646D6E90154013D10D4A3896F
:1018A000012B08D9B4F90E30013304D0214640464B
:1018B000B84749EA0009013D6B1C04F16804EED108
:1018C0003668002EE7D14846BDE8F88338B52F4B7F
:1018D00005461B680C4613B11A6A002A4BD0B4F9AE
:1018E0000C3018071CD5226922B313F0010107D070
:1018F00000206169A0604942A1613AB1002038BD71
:10190000980758BF6169A160002AF7D1190658BF2E
:101910001046F4D543F04003A3814FF0FF3038BDAB
:10192000D9062CD55A0712D4226943F00803A381A3
:10193000002ADAD103F42071B1F5007FD5D0214619
:10194000284600F02FFAB4F90C302269CDE7616B1C
:1019500051B104F14402914204D02846FFF736FF0A
:10196000B4F90C30002262630021226923F02403C1
:10197000C4E90021D9E71846FFF78EFDAFE7092239
:1019800043F040032A60A381C7E700BF000C00209A
:101990002DE9F041144641B30AB306460D4600F066
:1019A0001FFB8442074602D8B4EB500F13D82146E0
:1019B0003046FFF78BFE804650B1BC422246294696
:1019C00028BF3A46FEF73CFF29463046FFF7FEFEA9
:1019D0004046BDE8F081A8464046BDE8F081A046FB
:1019E000FFF7F4FE4046BDE8F0811146BDE8F04146
:1019F000FFF76CBE2DE9F84F92461F460A698B68C7
:101A00000C469A42B8BF1A46CAF8002091F84330F3
:101A10000646DDF8289013B10132CAF8002022688A
:101A200091065FD5DAF800300233CAF80030226838
:101A300012F0060F11461DD1E1689942D8BF114638
:101A400018DD4FF0000804F1190B05E0E568DAF83D
:101A50000030ED1A45450CDD01235A463946304623
:101A6000C847013008F10108F0D14FF0FF30BDE860
:101A7000F88F216894F84330003B18BF01238A0691
:101A80000AD53021E21882F8431094F845105A1C08
:101A90002244023382F843103946304604F14302AF
:101AA000C8470130E1D0D4E902202368DAF80050B9
:101AB00003F00603042B21691BD08A4220DD4FF07E
:101AC0000008521A904400251A3401E0454517DAFF
:101AD0000123224639463046C847013005F1010549
:101AE000F4D1C2E712F0060F0DD0003B18BF01235E
:101AF000D2E7401B8A4220EAE078E2DC0028E2DC00
:101B00000020BDE8F88FE168DAF800309942D8BFCC
:101B1000114696DCAEE700BF2DE9F04717460A7E76
:101B200084B00C46064698460C9D01F1430C002AF1
:101B300035D0A2F15803D9B2202969D8202B67D813
:101B4000DFE813F0E60066006600660066006600E7
:101B500066006600660066006600AC007000660005
:101B6000660066006600700066006600660066003B
:101B700021008300C60066006600B6006600830090
:101B800066006600EC002B682268181D61692860F9
:101B900010061B6802D4520600F1E0801960002391
:101BA000E14623613B4621463046CDF8008003AA3A
:101BB000FFF720FF013020D04A46394630462369DE
:101BC000C047013019D02368E0689B07DDF80C900E
:101BD00018D5484516DD002504F1190A04E0E0682F
:101BE000A0EB0903AB420DDD0123524639463046D6
:101BF000C047013005F10105F1D14FF0FF3004B0CD
:101C0000BDE8F0874845B8BF484604B0BDE8F08756
:101C1000012084F8422004F142090023206184F865
:101C20004330BFE72A682368111D1806296002D4D3
:101C3000590600F195801068014600286268C0F2DC
:101C400093804FF00A0E534815E020682B6810F07F
:101C5000800F53F8041B02D1400648BF89B26F2A97
:101C600014BF4FF00A0E4FF0080E4A482B600023B5
:101C7000626884F84330002AA26051DB236823F0B5
:101C80000403236000294BD1002A7BD1E146BEF139
:101C9000080F56D0ACEB0903236183E72A680120C3
:101CA000116804322A6004F1420984F84210B4E752
:101CB0002B6800211A1D2A60D3F8009062684846FC
:101CC00000F0F8F8002863D0A0EB09006060A4E7FA
:101CD000236843F02003236078222F4884F84520AE
:101CE0002A6813F0800F52F8041B03D113F0400F41
:101CF00018BF89B22A60DA0744BF43F0200323608B
:101D000019B9236823F0200323604FF0100EAEE7CB
:101D10005823204884F845302368E1E72368DBE74F
:101D20007546E146B1FBF5F30A4605FB131A194661
:101D300010F80A30AA4209F8013DF3D2BEF1080FAB
:101D4000A8D12368DD07A5D5626823699A42A1DC82
:101D5000302309F1FF3989F800309BE719801EE72D
:101D6000B2F90010084668E72D20002AA26084F826
:101D7000430002DB23F0040323600A250548AE4636
:101D80004942CEE7037804F1420984F842307EE705
:101D9000606842E700F8000814F80008704700BFC8
:101DA000704700BF70B5B1F90C300C46990796B07A
:101DB00007D5012204F14703C4E90432236016B0B9
:101DC00070BDB4F90E100546002929DB6A460BF0F8
:101DD00074FC002822DB4FF480612846019EFFF747
:101DE00075FC88B3A38906F4704643F08003A38191
:101DF0004FF48063B6F5005FC4E904032060DED1D0
:101E00002846B4F90E100BF064FC0028D7D0A38943
:101E100023F0030343F00103A381D0E7B4F90C30AE
:101E200013F0800F14BF40264FF4806628463146D9
:101E3000FFF74CFC40B1A389C4E9040643F08003DA
:101E40002060A38116B070BDB4F90C309A05B6D4E9
:101E5000012123F0030304F1470243F00203C4E924
:101E60000421A3812260AAE770B50C46B1F90E10D7
:101E7000154600291E4696B00FDB6A460BF01DFC86
:101E800000280ADB019B4FF4806203F47043A3F542
:101E90000053B3FA83F35B0907E0A289002312F031
:101EA000800F14BF40224FF48062002033602A600C
:101EB00016B070BD5FFA81FC810744D00346511E05
:101EC00022B909E09A0709D0013905D318460278EA
:101ED00001336245F6D17047002070471846032948
:101EE0000CD80029F8D00346014401E08B42F3D01E
:101EF000184613F8012B6245F8D1704710B50CEB6A
:101F00000C24024604EB044402E00439032915D9E9
:101F1000104652F8043B6340A3F1013E2EEA03034E
:101F200013F0803FF1D00346014401E08B4208D01A
:101F3000184613F8012B6245F8D110BD1046002950
:101F4000F1D1002010BD1146C9E700BF10B50C4605
:101F5000B1F90E100BF099FB002803DB636D03440D
:101F6000636510BDA38923F48053A38110BD00BF16
:101F7000002070472DE9F0410C46B1F90C101F46C6
:101F8000CB05054616460BD421F48051A1813B4672
:101F900032462846B4F90E10BDE8F0410BF07CBB88
:101FA000B4F90E10022300220BF074FBB4F90C10EC
:101FB000EAE700BF10B50C46B1F90E100BF06AFB52
:101FC000B4F90C30421C0EBF23F4805343F4805309
:101FD0006065A38110BD00BFB1F90E100BF05EBBB0
:101FE00051F8043C181F002BBCBF0B58C018704799
:101FF00070B50026074D0446084611462E600BF0CA
:1020000073FB431C00D070BD2B68002BFBD02360FA
:1020100070BD00BF341400200BF06EBB032806D83F
:10202000B422504300F12401014804F0F3BC70478E
:1020300038140020032838B50CD8084900230C7840
:10204000012C07D14D78854206D10B70FFF7E6FFD2
:10205000204638BD0020FCE71846FAE75C0C00205B
:10206000F7B504460D4607F025FA2B4E2B4F70802E
:10207000E0B285424ED90021294A0FE01CF801EB5D
:10208000BEF1FF0F01D0864518D00133DBB20F2B14
:10209000F4D10131062902F10F0239D09446002310
:1020A000ECE7012906D1012B04D100227388ADF899
:1020B000002015E07388ADF8000011E03A683AB3EB
:1020C0001E2000FB012232F8131032F81300090A17
:1020D00012F8133040BAE4D1002BEBD1ADF8003048
:1020E0008DF80230009805F021F8C0F307238DF831
:1020F0000400C0F307408DF805308DF806009DF808
:10210000063020469DF804209DF8051005F012FDCC
:102110000134ADE703B0F0BD5C0C0020EC140020EE
:10212000890C002041EA020370B40D4650EA030115
:1021300004D170BCB4220A48FEF7B4BA00241E26AB
:102140000F2306FB04F10648013B13F0FF03057063
:1021500042700844F8D10134062CF1D170BC7047AC
:1021600038140020032806D8B422504300F124017B
:10217000014804F097BC704738140020074B084A08
:1021800010B51A600023074C2370607007F092F9B5
:1021900060806078BDE81040FFF7E4BFEC140020D9
:1021A000381400205C0C0020032808B50DD8084A1C
:1021B0005070FFF7D7FF07F015F92D2801D1012046
:1021C00008BD2D2007F00BF9F9E70020F8E700BF64
:1021D0005C0C0020032808B511D80A4A117871B99F
:1021E000012150701170FFF7BDFF07F0FBF82D289B
:1021F00001D1012008BD2D2007F0F1F8F9E70020FA
:10220000F8E700BF5C0C0020024B1878431E5842D0
:10221000584170475C0C002070B5114B1B78012BA6
:102220001CD1104A126892B11E244878097804FB28
:1022300000220D4832F81140054630F8026BA642E4
:1022400007D103F0070335F8133022F811300120CD
:1022500070BD0133092BF0D10023F6E70020F7E72A
:102260005C0C0020EC14002072EA00084FF4347279
:102270002421014804F0CEBB9CEB000838B50024B3
:10228000064D07F0AFF815F8013B984204D0013431
:10229000102CF6D1002038BDE0B2FCE762EA00085D
:1022A00008B5FFF7EBFF00F53E7004F065FB06286C
:1022B00028BF002008BD000038B50446FFF7DEFF48
:1022C0000E4B1B78012B18BF01300D4B18BF00F0CF
:1022D0000F00185C207007F082F8FFF7E1FF094B50
:1022E00013F8104003EB40035D7807F0E3F829464C
:1022F00002462046BDE8384007F0B5B85C0C002027
:1023000062EA000851EA0008F8B50646FFF7C8FF80
:1023100007250446164F07F065F817F8013B984269
:102320001FD0013D15F0FF05F5D10423DEB1A34216
:102330001CD001340F4BE4B213F8145003EB4403E8
:102340005E7807F0B7F831460246284607F08BF86A
:10235000FFF794FF214600F53E7004F038FB20465D
:10236000F8BD0323E2E70CB1013CE3E7FF24F6E705
:102370005BEA000851EA00082DE9FF411D4B1B787C
:1023800093B3002201AC1146104605F03FFC002536
:1023900027460A26DFF860800A2241463846FEF7C3
:1023A0004FFA00F00BFE0378EAB2B3FBF6F3934268
:1023B00000D8E5B900F002FE0378312B03D90023E1
:1023C0009622194608E000F0F9FD03781D2B4FF026
:1023D0000003F5D81A4696212078013505F0AAFBAE
:1023E0000A2D04F10104D7D104B0BDE8F081002327
:1023F0001A46E6E79C3A002011EA000838B50C4678
:10240000074D30B108F032FF002328602370002010
:1024100038BD286808F06EFF3228F3D8F7E700BF10
:10242000F4140020014B1860704700BFF81400201E
:1024300038B500F0BFFD284C027823789A4206D0C8
:1024400000F0B8FD002203782370244B1A6000F0DE
:10245000B1FD0378022B16D0032B04D00BB91F4A11
:102460001360012038BD1D4C25689DB908F0FEFEA3
:10247000206000F093F9044600F090F92A460146E6
:10248000204601F0FDFC154C2068C0B908F0EEFEB6
:102490002060E6E7284608F02DFF47F22F539842C8
:1024A000F1D908F0E3FE2060112000F03BFF44F674
:1024B00020600AF0F4F8012000F0A2FBE3E708F046
:1024C00019FF074B9842CCD308F0D0FE20600120C2
:1024D00000F096FBC5E700BFF0140020F8140020C0
:1024E00080EE360013B58DF807100DF10701FFF7E8
:1024F00085FF044608B9FFF79BFF204602B010BDD8
:10250000244B2DE9F0411B78BBB10F254FF001089A
:10251000214E56F8041B4B1C0BD021F00F0701F085
:102520000F0108FA01F40122214638460BF068FB3E
:10253000BC61013D15F0FF05EBD1002280214FF079
:1025400080400BF05DFB00BF00BF00BF00BF00BFBD
:1025500000BF00BF00BF00BF00BF00BF00BF00BF83
:1025600000BF00BF00BF00BF00BF00BF00BF00BF73
:1025700000BF00BF00BF302383F311880122072171
:102580004FF080400BF05CFB002383F31188BDE823
:10259000F08100BFE51E002084EA0008072802D170
:1025A000032000F00DBB704708B54FF400124FF048
:1025B00080439A614FF000729A614FF48022C3F811
:1025C000182C084B1B785BB1112000F0ABFE44F6D1
:1025D00020600AF064F8BDE80840022000F0F0BA7C
:1025E00008BD00BFE51E002010B5084C237863B17C
:1025F00000F0ECFA033801289DBF0023032023706C
:102600000220BDE8104000F0CDBA10BDE51E00204C
:1026100008B500F0CFFC0378022B03D100F0D2FC08
:10262000007808BD0020FCE700F0B4BC7047000053
:10263000F8B50C4615460646F8B921BB134F3B7852
:10264000A34200D13DB100F0B5FC0323037000F0BC
:10265000B9FC002303703C7003F05AFD2946204664
:1026600000F0EEFE2A462146304601F009FC2A46DB
:1026700021463046FFF7DAFFF8BD0029DED1012000
:1026800000F020FADAE70220FAE700BF0F15002079
:1026900037B5044600F08EFC0378012B0DD00025E1
:1026A000CDE9005500F086FC0378022B07D0094BDA
:1026B0002A4619780846FFF7BBFF03B030BD24B1A6
:1026C000082221466846FEF7BBF8684600F090FDF8
:1026D000F3E700BF0F15002037B5044600F06AFC91
:1026E0000378012B0ED0002500958DF8045000F0E2
:1026F00061FC0378022B07D00D4B2A461978084657
:10270000FFF796FF03B030BD74B163788DF80030E9
:10271000A3788DF80130E3788DF8023063798DF875
:10272000033023798DF80430684600F0BFFDE9E7F7
:102730000F15002037B5044600F03CFC0378012B50
:102740000DD00025ADF8065000F034FC0378022BC4
:1027500007D0114B2A4619780846FFF769FF03B0E6
:1027600030BD002CFBD0A278637843EA0223ADF899
:102770000630813B022B09D801220DF1060002FA36
:1027800003F3ADF8063000F07DFDE8E70DF106003B
:1027900000F062FDE3E700BF0F150020014B187841
:1027A000704700BF0F15002010B5154C002322788C
:1027B000032A22D8DFE802F0020B131B0A22114879
:1027C000C370827008F088FB0123237010BD0D4890
:1027D0008370F623C37008F07FFB0223F5E7F6222F
:1027E0000848C370827008F077FB0323EDE70548C3
:1027F00083700A23C37008F06FFB0023E5E700BF76
:1028000006150020001500207047000010B5FFF7E6
:10281000FBFF00F0DBFA00F0DFFB01F027F900F02E
:102820006DF9012803D1BDE8104000F06DB900F04A
:10283000B3F968B9074C206808F05CFD40F6B7337F
:10284000984205D900F04EFE10B108F00FFD20604F
:1028500010BD00BFFC1400202DE9F04F8FB00E22F8
:102860000021814602A8FDF71DFF00F0A3FB0378BD
:10287000012B0AD000F09EFB0378022B08D05D4BA1
:10288000002219780846FFF7D3FE0FB0BDE8F08F9D
:10289000B9F1000F00F0A5804FF01E08002520229E
:1028A000494606A8FDF7CCFF534F9DF819300DF1AE
:1028B00019043B7014F8010FFDF7B0FC08F1FF3864
:1028C000284418F0FF08C5B2F4D14C4E4FF0060B67
:1028D000B2461AF8013F9BB300242246D3B29D4270
:1028E0000BD89AF80030A34218BF8AF8008022E083
:1028F00001331E2B04D11C4607E000230DF1190102
:1029000011F8010F0028F3D0DCB204F138036B4456
:1029100013F81E0C019202F0FCFA40EAC404E4B27F
:10292000214606A808F0A3FB9AF80030019AA342BA
:1029300002F10102D2D10BF1FF3B1BF0FF0BC8D11A
:102940004946202206A8FDF77BFF4FF000084FF014
:1029500001095FFA88F39D420FD800F0FFFA0028C2
:1029600045D1254808F0A6FA02A800F05AFC8CE7E9
:1029700001331E2B04D11C4607E000230DF1190280
:1029800012F8011F0029F3D0DCB204F138036B44C4
:1029900013F81E0C02F0BDFA40EAC404E4B221466A
:1029A00006A808F064FB3246002312F8011FA1427A
:1029B00002D021B93B449C7008F10108C9E70133FA
:1029C000062BF2D16F2CF7D80EAB03EBD40313F820
:1029D000302C04F0070409FA04F4144303F8304CD3
:1029E000EAE7082249460448FDF75CFEB5E7FFF731
:1029F0000DFFB2E70F150020071500200815002075
:102A000008B5064B1B7823B9054B1B780BB1FFF7B4
:102A1000CBFEBDE80840FFF7F9BE00BF0F15002050
:102A2000BB3A002070B5044658B108F031FA0C4B9F
:102A3000834205D0184608F025FA0122094B1A7086
:102A400070BD00F0B7FA0378022BF9D1044D20468F
:102A50006B6898472046AB68BDE87040184700BFD8
:102A6000600C0020040E002038B5044688B108F040
:102A70000FFA114C84421ED00122104B1A7000F044
:102A8000BFFF0F4808F060FF2046BDE8384008F05F
:102A9000F9B90B4B1B78042B05D1074D6B68984790
:102AA0002046AB68984706480AF065FB04480AF0E0
:102AB00071FF00F0ADFF38BD080E0020E6360020A3
:102AC0003448002010B50C4B04461A78824204D0DA
:102AD0000128187002D0022807D010BD0020FFF78F
:102AE000A1FF2046FFF7C0FFF7E70020FFF7BCFF7C
:102AF0000120FFF797FFF0E7740C0020014B1878D6
:102B0000704700BF740C002010B50D4B0D4C1B78A6
:102B1000052B12D1236813B908F0A8FB20602068A8
:102B200008F0E8FB42F20F73984208D90023012015
:102B30002360BDE8104000F063B80023236010BD9F
:102B4000344800201015002010B50B4C2378052BBD
:102B500010D1B4F84C309B0708D508F037FB28B1EA
:102B600020460AF093FB054809F099FDBDE81040A6
:102B700008F04EBB10BD00BF34480020A086010005
:102B800008B5044B1B78012B01D1FFF7DDFF0120B5
:102B900008BD00BF740C0020014B1878704700BFBF
:102BA00020150020014B1870704700BF2015002031
:102BB00008B508F05BFB014B186008BD1815002034
:102BC000014B1870704700BF16150020014B187894
:102BD000704700BF16150020302310B583F311880D
:102BE00000F0B6FC002484F3118872B600F0FCFDFE
:102BF00000F052FD03F0B6FD84F3118862B610BDFB
:102C0000014B1870704700BF1515002010B5074C18
:102C1000237828B11BB1FFF7CBFF0323237010BD2E
:102C2000002BFCD10122024B1A70F8E7201500207E
:102C3000151500200F4B70B51E6800F010FF0E4DEB
:102C4000044618B900232B7000240AE0FFF7A6FD04
:102C500018B90A4B1B78042BF4D02B781BB1002336
:102C60002B70204670BD002EEED003F04BFAB04220
:102C7000EAD3F4E71C150020151500203448002085
:102C800010B5FFF78BFD70B9084B1B785BB9084C8A
:102C90002378012B07D000F0BBFE20460AF07AFE15
:102CA00020460AF068FA012010BD00BFED1E00208A
:102CB0003448002008B5FFF7E3FF38B1044B18682B
:102CC00008F018FBC72894BF0020012008BD00BFF2
:102CD000181500200120704708B5FFF7FBFF38B139
:102CE000044B186808F006FBC72894BF0020012099
:102CF00008BD00BF1815002070B5FFF74FFD044652
:102D000068B9084E3578012D09D100F079FE3046BA
:102D100008F01AFE224621462846FFF789FC0120CA
:102D200070BD00BF3448002008B5FFF7E5FF38B19B
:102D3000044B186808F0DEFAC72894BF0020012071
:102D400008BD00BF181500207047000008B506F048
:102D50001DFB003818BF0120044B187006F0FEFA66
:102D600008F04DFAFFF7F0FF08BD00BF1415002072
:102D7000002310B5074C2370FFF716FCFFF72CFF5C
:102D80002378054A022B18BF03231370FFF72CFC8E
:102D900010BD00BF161500202015002008B5094BF6
:102DA0001B780BB106F0C0FA08F032FA01F026FFEA
:102DB00003F0AEF9BDE808400C2200210248FDF7FF
:102DC00071BC00BF141500201444002010B5184C2D
:102DD0002378032B0AD8DFE803F0020A141DFFF75B
:102DE00029FF18B1FFF7E4FE0123237010BDFFF7A0
:102DF00061FF0028FAD0FFF7A9FFFFF7D9FE0223F1
:102E0000F3E7FFF769FF0028F0D0FFF7D1FEFFF7E7
:102E1000AFFFEBE7FFF788FF0028E7D0FFF7BEFF23
:102E2000FFF7C6FE0023034A23701370DEE700BFDE
:102E30002015002015150020202938B505460C4620
:102E400010D1FFF75BFE012806D122462946BDE8D6
:102E50003840022008F0C4BD21462846BDE838406D
:102E600000F0CDBA38BD07F036BF0000054A064B6A
:102E700006495A60116051609A60DA600022196157
:102E80001A707047081D00202415002038150020F6
:102E90002DE9F041174C0E466768A56807F59C7848
:102EA0004545E36804D19F4206D10020BDE8F0818A
:102EB00005F108029342F7E70F4B22699A1A312A6B
:102EC0009CBFA3F2CF732361322EEED82369014653
:102ED00032461846FDF7B4FC0346454533442860A6
:102EE00023616B6002D1A7600120DFE70835A56090
:102EF000FAE700BF24150020071D0020074A10B57F
:102F0000D3689268934207D0D3E90014641A22462A
:102F1000FDF796FC204610BD0024FBE72415002099
:102F2000074BDA6899688A4208D0596801F59C70A5
:102F3000824201D1D96070470832DA60704700BF21
:102F400024150020014B1878704700BF241500207D
:102F5000014B1870704700BF24150020034BD86840
:102F60009B68C01A18BF0120704700BF24150020BD
:102F70000246002330B5441812F8015B2B44A242EC
:102F8000DBB2F9D1435430BD0120704708B5FFF7DB
:102F9000FBFF08BD08B54FF4E13008F0B5FAFFF7C4
:102FA00065FFBDE80840242200210148FDF77ABBF7
:102FB0009C1E002000487047750C00200048704798
:102FC000780C002000487047760C002018B111B131
:102FD00089B208F0C9BA704773B5FFF7B3FF032889
:102FE0000FD8DFE800F040022D3B774B186808F05F
:102FF00081F90A2805D900220220744B1A70FFF7C4
:10300000A7FF734D734C08F0B9FA002856D008F0AA
:10301000A1FA2A68012A38D0022A3ED0002A5BD1C0
:1030200061282FD85F2804D8A0F15A03DBB2032B04
:10303000E9D8012302222B60674B20701A70E2E767
:10304000624A13780133DBB2282B02D813700020B8
:10305000D5E700231370FFF763FFF8E7FFF760FF82
:103060000020FFF775FF5D48FFF748FF0146002885
:10307000C7D05A48FFF7AAFF08F0F8F8524B18607B
:103080000120BCE7AF28BED1D3E70223524A2B6010
:1030900013786070013B1370B5E72378612B0FD173
:1030A00063780D2B18D10A2816D1FFF74BFF0128A2
:1030B00002D10320FFF74CFF00232B6002B070BD4C
:1030C000AF2B09D16378602B06D103232B60424BD1
:1030D000A0700130187096E73F49531C2B600B78A5
:1030E000A054013BDBB20B70002B8CD11946394840
:1030F00010F8016B013133448A42DBB2F8D8A25C8C
:103100009A422AD10322364901A8FDF799FB0321EF
:1031100001A808F029FA20462978FFF737FF002890
:10312000CCD02378602B0AD8592B16D95A3B062BC2
:1031300013D8DFE803F015193A3E12124200AF2B04
:103140000BD1A678202E08D1264932462648FDF715
:1031500077FB31462448FFF786FE00232B6052E7B9
:103160006278224B5A70F8E76378313B052BF4D82C
:1031700001A252F823F000BF9131000899310008F4
:103180009F3100085B3100085B310008A531000861
:103190000122164B1A70E0E70222144BFAE70322D1
:1031A000124BF7E70422114BF4E762780F4BDA7009
:1031B000D3E762780D4B9A70CFE76078431E584290
:1031C0005841FFF723FDC8E7541E0020501E002081
:1031D0004C1E0020781E0020481E00209C1E00204F
:1031E0001CEA00087B1E0020581E0020750C0020E1
:1031F0001FB5002301930293ADF80C30A1230822E0
:1032000001460DF105008DF80430FDF719FB01A80A
:103210000921FFF7ADFE0A21FFF73AFE05B05DF880
:1032200004FB30B5102585B004462A4600216846C7
:10323000FDF738FAA2230E2221460DF101008DF888
:103240000030FDF7FDFA68460F21FFF791FE294691
:10325000FFF71EFE05B030BD002307B50193A32381
:10326000022201460DF105008DF80430FDF7E8FA61
:1032700001A80321FFF77CFE0421FFF709FE03B03C
:103280005DF804FB002307B58DF80630A4238DF804
:1032900004300378022101A88DF80530FFF768FE9D
:1032A0000321FFF7F5FD03B05DF804FB002307B52C
:1032B0000093ADF804308DF80630A82305220146AE
:1032C0000DF101008DF80030FDF7BAFA68460621CD
:1032D000FFF74EFE0721FFF7DBFD03B05DF804FBAF
:1032E00030B5054687B0152200216846FDF7DAF9AA
:1032F0002846FDF7A1F9C4B2122C11D8A923224601
:1033000029460DF102008DF800308DF80140FDF7DF
:1033100097FAA11C6846FFF72BFE1521FFF7B8FDB1
:1033200007B030BD002307B58DF80630A6238DF811
:103330000500022101A88DF80430FFF719FE0321D2
:10334000FFF7A6FD03B05DF804FB30B50C468FB067
:1033500005463122002101A8FDF7A4F92E2C11D831
:10336000AB23224629460DF106008DF804308DF876
:103370000540FDF765FAA11C01A8FFF7F9FDE11C66
:10338000FFF786FD0FB030BD30B50C468FB0054657
:103390003122002101A8FDF785F92E2C11D8AC238C
:1033A000224629460DF106008DF804308DF80540BF
:1033B000FDF746FAA11C01A8FFF7DAFDE11CFFF7B3
:1033C00067FD0FB030BD1FB5002304220293ADF896
:1033D0000C30AD2340EA014001900DEB02010DF1EC
:1033E00009008DF80830FDF72BFA02A80521FFF738
:1033F000BFFD0621FFF74CFD05B05DF804FB30B5BD
:103400000C468BB005462422002101A8FDF74AF99D
:10341000202C12D146F2AF13224629460DF10700A7
:10342000ADF804308DF80640FDF70AFA232101A813
:10343000FFF79EFD2421FFF72BFD0BB030BD0000F0
:1034400010B50C46062842D8DFE800F004202B2DEA
:103450002F3809001120BDE81040FFF763BF30206E
:10346000FFF760FF9CB30A211948FFF76EFF0C219C
:103470001848FFF789FF43F22D404EF2C241FFF793
:10348000A2FF5220FFF74EFF5120E4E73120FFF763
:1034900049FFE4B15220FFF745FF0F48FFF720FF37
:1034A000F2E73220F3E73320F1E73420FFF73AFF69
:1034B0006CB15220FFF736FF0848EFE73520FFF7E1
:1034C00031FF24B15220FFF72DFF0548E6E710BD7C
:1034D000C0EA0008CAEA000820EA000826EA000854
:1034E00030EA000808B5FFF739FD20B95320FFF78F
:1034F00019FF012008BD0020FCE7000010B5C4B290
:103500000B2C03D0122C0ED0012000E00220FFF77C
:1035100057FB2046FFF742F80AF04BFB4FF0FF3213
:10352000024B5A6110BD0420F1E700BF00180040B3
:103530000023054A0549C2E900130133102B02F1AB
:103540000802F8D1704700BFF0450020FD340008A4
:103550002DE9F041FFF7ECFF00254FF00108494E3F
:1035600056F8041B4A1C0CD021F00F0701F00F0184
:1035700008FA01F421460522384624040AF040FBEB
:10358000BC610135EDB20F2DEAD1062401263027AA
:103590003D4D55F8040B431C2ED000F00F012022A6
:1035A00006FA01F120F00F000AF02AFB00BF00BF6D
:1035B00000BF00BF00BF00BF00BF00BF00BF00BF13
:1035C00000BF00BF00BF00BF00BF00BF00BF00BF03
:1035D00000BF00BF00BF00BF00BF00BF87F311885E
:1035E00055F8040C022200F00F0120F00F000AF041
:1035F00027FB002383F31188013C14F0FF04C8D19A
:10360000224B1B78002B27D122464FF40061204823
:103610000AF0F6FA00BF00BF00BF00BF00BF00BF46
:1036200000BF00BF00BF00BF00BF00BF00BF00BFA2
:1036300000BF00BF00BF00BF00BF00BF00BF00BF92
:1036400000BF00BF302383F3118803220B211048F1
:103650000AF0F6FA84F31188302383F311880122EB
:103660000C214FF080400AF0EBFA002383F311881D
:10367000062123200AF043F8FEF742FFBDE8F0419F
:103680000AF078BA34EB000870EB0008E51E002061
:10369000000800407047000008B508F0DDF903227B
:1036A000214B22499A620C22DA62D1F890202048FC
:1036B00022F01802C1F8902000229A62DA62D3F850
:1036C000402C03F5406342F480721A641A6C4FF484
:1036D000006142F002021A6401225A63DA67DA6674
:1036E00008225A615A695A615A6942F001025A61C4
:1036F0009A6C42F4C0629A649A6CDA6C42F00802E6
:10370000DA64DA6C9A6C42F480529A649A6CDA6CDD
:1037100042F01002DA6440F28232DB6C0AF070FA96
:10372000FFF7B8FF08BD00BF0000014000040140E2
:10373000000800404FF0E02238B51369012423F05F
:1037400001031361224A234B5A6100220021930096
:1037500003F1604303F56143D3F80001CDB2012DBD
:1037600094BF002000F0010008B1C3F8804101318E
:103770002029F1D10132082AE8D1174C636843F0BF
:1037800000736360154B1A6802F009021A601A6828
:1037900042F46C3242F004021A6040F2B3321A6210
:1037A0000F4B43F001039847236943F0040323615F
:1037B00030BF0C4B43F0010398474FF0E0222369E0
:1037C00023F004032361136943F00103136138BD3F
:1037D000FFFF07000018004000ED00E0000001407E
:1037E0000CEB0008D8EA0008FFF7A4BF0B8807B568
:1037F000A3F5FC43032B1FD8DFE803F002223D585A
:10380000374A012013789278C3F3420302F007028B
:103810000DF107018DF80730FEF7F0FD9DF8072048
:10382000042A09D81523D340D90705D5FEF7B6FFDA
:1038300001221146FEF7FCFE002003B05DF804FBF8
:10384000274A012013789278C3F3420302F007025B
:103850000DF107018DF80730FEF7D0FD9DF8072028
:10386000042AE9D81523D340DA07E5D5FEF796FFF9
:1038700001220221DEE71A4A012013789278C3F36D
:10388000420302F007020DF107018DF80730FEF741
:10389000B5FD9DF80720042ACED81523D340DB07B9
:1038A000CAD5FEF77BFF01220321C3E70C4A0120A2
:1038B00013789278C3F3420302F007020DF1070177
:1038C0008DF80730FEF79AFD9DF80730DA1E012AC1
:1038D00001D9002BB0D1FEF761FF01220621A9E733
:1038E0001044002010B50A4C238803F00E0363F047
:1038F000FE032380A37823F01F0343F00103A3708A
:10390000FEF7B4FC2068BDE8104002F081BB00BFA8
:103910001044002008B502F078FB044B186018B979
:10392000BDE80840FFF7DEBF08BD00BF104400201F
:1039300010B5FFF7EFFF012220214FF080400AF081
:103940005FF905F0B7FD18B14FF0804320229A616E
:10395000254C0122204604210AF052F90423A361D8
:103960004FF4003321480122836102210AF048F913
:10397000002280214FF080400AF042F920224FF4CB
:1039800000414FF080400AF03BF920224FF4004103
:1039900017480AF035F9164820224FF480410AF002
:1039A0002FF9FEF741FE0022124C217811F00E0F84
:1039B00014BF10460120C1F34201FEF739FE07F0A3
:1039C00055FC0D4B186002F0C1FB20780009FEF792
:1039D000D5FB05F04BFD094BC0F307221870C0F36F
:1039E00007405A70987010BD000C00400004004061
:1039F0000008004010440020F01E00200C4400206D
:103A00004FF40032014B9A61704700BF0004004040
:103A10000222014B9A617047000400404FF080433E
:103A20004FF400129A6107F0CFBB10B505F042FDCC
:103A300018B14FF0804320229A61FEF7AFFE044692
:103A4000FEF7ACFE002201462046FEF7F1FD07F02E
:103A5000BCFB07F00BFCBDE81040FEF7E3BC08B56B
:103A6000FEF79CFE003818BF012008BD38B5144D84
:103A7000144C2868C8B107F03DFC632815D97020A4
:103A8000FFF750FC5520FFF74DFC5720FFF74AFC8D
:103A90000022217811F00E0F0CBF01201046C1F357
:103AA0004201FEF7C5FD00232B60A278217800209B
:103AB000BDE8384002F00702C1F34201FEF712BD33
:103AC000F01E0020104400206A4B37B51880A0F586
:103AD000FC400C46042800F2CA80DFE800F0033BFB
:103AE0005E81A300644A012013789278C3F34203F5
:103AF00002F007020DF107018DF80730FEF77EFC9A
:103B00009DF80720042A22D81523D340D9071ED5B3
:103B100065795A4C9DB1FEF741FE012805D0FEF7AC
:103B20003DFE00220121FEF783FD23785BB940F6BC
:103B3000B830504A524906F0E9F8207003E0207886
:103B400006F0F2F8257007F091FBFEF76BFC002001
:103B500003B030BD484A012013789278C3F3420382
:103B600002F007020DF107018DF80730FEF746FC61
:103B70009DF80720042AEAD81523D340DA07E6D5B2
:103B800065793E4C002DDAD0FEF708FE0228CCD035
:103B9000FEF704FE00220221C5E7374A0120137810
:103BA0009278C3F3420302F007020DF107018DF88A
:103BB0000730FEF723FC9DF80720042AC7D81523F9
:103BC000D340DB07C3D565792C4C002DB7D0FEF769
:103BD000E5FD0328A9D0FEF7E1FD00220321A2E7BD
:103BE000254A012013789278C3F3420302F00702BA
:103BF0000DF107018DF80730FEF700FC9DF8073046
:103C0000DA1E012A01D9002BA1D165791B4C002DA8
:103C100095D0FEF7C3FD062887D0FEF7BFFD002232
:103C2000062180E7144A012013789278C3F34203F7
:103C300002F007020DF107018DF80730FEF7DEFBF9
:103C40009DF80730DA1E012A02D9002B7FF47FAFDE
:103C500065790A4C002D3FF472AFFEF79FFD0028F6
:103C60003FF463AFFEF79AFD002211465BE70120A7
:103C70006EE700BFCC1E002010440020CA1E0020AA
:103C8000ED370008F8B52F4B04461A780D463AB1C7
:103C90004A792AB10022114610461A7003F0B6FF85
:103CA000FFF788F90378022B03D107F0DFFAFEF75C
:103CB000B9FB47F621039C421BD015D845F22122BF
:103CC00024F00203934228D16F7997B9FEF79CFA4A
:103CD00078B11D4E337823B1294620463770FEF760
:103CE0009BFA0123337004E0A4F5FC43053B032B4E
:103CF00013D8FEF789FA10B3A4F5FC43053B032B58
:103D00001CD947F621039C4218D045F2212024F00B
:103D10000204231A5842584110E0FEF775FA0028B1
:103D2000E7D0A4F5A443203B1F2BE2D96B79002BED
:103D3000DFD029462046FEF76FFA0020F8BD0120AB
:103D4000FCE700BFE61E0020BC3A002013B505F0DA
:103D500049FB0128374C0CD105F088FBC0F3072341
:103D600010F0FF008DF8053013D1DBB2C3B103238F
:103D7000237023780133DBB20B2B237020D1002377
:103D8000237005F0E3FA23782B4AD05C05F027FB7B
:103D900022E0782810D005D8282809D0502809D04A
:103DA0000923E5E7A02809D0C828F9D10823DFE7CF
:103DB0000423DDE70523DBE70623D9E70723D7E75D
:103DC0000A2BDED105F052FBFF21C0F30742002091
:103DD00005F049FB05F0D2FA05F048FB2378C0F363
:103DE0000742092B24D8DFE803F01D2323050C0F1D
:103DF0001215181BFF21002002B0BDE8104005F08D
:103E000032BBFF212820F7E7FF215020F4E7FF21F4
:103E10007820F1E7FF21A020EEE7FF21C820EBE7A3
:103E20000021E8E7FF2002B0BDE8104005F0C0BB6C
:103E3000C820F8E7C91E0020790C002073B515468C
:103E400006461C46019107F011FA084B0322186040
:103E5000074B64001E60074B01A91D60064B074815
:103E60001C60FCF7EDFC02B070BD00BFE01E00203E
:103E7000D41E0020DC1E0020D81E0020CE1E0020F4
:103E8000F7B55A4B5A4D0E462F7814461A70FEF766
:103E900085FCC7F34207874213D0FEF77FFC2B78DF
:103EA00000F0070060F343032B7003F00E032BB107
:103EB00003289EBFAB7860F30203AB70286802F062
:103EC000A7F8062E00F29080DFE806F004172B3FDB
:103ED00053677B004FF6FF73ADF804308DF8063062
:103EE00001233CB1C8222C20019903B0BDE8F04069
:103EF000FFF7A4BF4FF4FA72F5E7FF234CB100229D
:103F00008DF80630ADF804200123C8223020019935
:103F1000EBE78DF806304FF4FA720123ADF8044058
:103F2000F4E7FF234CB100228DF80630ADF80420F1
:103F30000123C8222F200199D7E78DF806304FF4CE
:103F4000FA720123ADF80440F4E7FF234CB10022DC
:103F50008DF80630ADF804200123C8222E200199E7
:103F6000C3E78DF806304FF4FA720123ADF8044030
:103F7000F4E7FF234CB100228DF80630ADF80420A1
:103F80000123C82229200199AFE78DF806304FF4AC
:103F9000FA720123ADF80440F4E7FF234CB100228C
:103FA0008DF80630ADF804200123C8222A2001999B
:103FB0009BE78DF806304FF4FA720123ADF8044008
:103FC000F4E74FF47F43ADF804303CB10023C8223E
:103FD0008DF8063001232D20019986E701234FF447
:103FE000FA728DF80640F6E703B0F0BDE41E00203B
:103FF0001044002010B5FEF7DDFF0378022B13D02C
:10400000FEF7CCFB18B90A4B1B78042B0AD0FEF73D
:10401000C5FB0446FEF7C2FB064B01461A78204654
:10402000FFF72EFF012010BD00F09BFF0020FAE7F4
:1040300034480020E41E002070B5164C2068D0B132
:1040400007F058F9144B154D1B68984208D2144BD1
:1040500018682B6813F0010313D11A46194614E0AF
:1040600007F004F92B68206033B900232360FFF7C1
:10407000C1FF0028EBD170BD013B2B60002BE6D1C6
:10408000F3E708498B784A780978BDE8704003F077
:1040900051BD00BFE01E0020DC1E0020D81E002005
:1040A000D41E0020CE1E0020F7B50C4C1D462378F0
:1040B00006461746019173B90123237007F0D6F81D
:1040C0006D006060032201A904F11100A760E560A2
:1040D0002674FCF7B5FB03B0F0BD00BFA03A00208A
:1040E00010B5134C23780BB3606807F003F9A3688D
:1040F000984210D307F0BAF8E36860603BB9002338
:10410000237063600023207C1A4619460AE0013BB5
:10411000E360002BF3D0E368207CDB07F2D5E37C7F
:10412000627CA17CBDE8104003F004BD10BD00BF5F
:10413000A03A0020214B13B51C788CB1204B1B7882
:1041400023B100221F4B1A6002B010BD1D4A194650
:1041500013600120FF2202B0BDE8104003F0EABC6A
:10416000FEF72CFF03780F2BEBD8FF23ADF80430BC
:1041700001238DF806401846FA220199FFF794FFB3
:10418000FEF71CFF0378002BDED10E4C236813B919
:1041900007F06CF8206020680028D5D007F0AAF856
:1041A0004EF660239842CFD9002301202360064BAE
:1041B000187002B0BDE81040FEF722BDED1E0020D1
:1041C000EC1E0020C01E0020E51E00202DE9F3415A
:1041D00006461D46182000231746134A019100FB8E
:1041E00003F112F801808C18B8F1000F17D10123E8
:1041F000535407F03BF86D006060032201A904F1FD
:104200001100A760E5602674FCF71AFBFF2E0ABFB9
:10421000064BC4F81480636102B0BDE8F08101333D
:10422000632BDCD1F8E700BFC43A0020F14300085B
:1042300073B501F067FF4EF660239842524B1A782F
:1042400040F2828032B94FF080424FF40011916108
:1042500001221A704FF0804213694C4C03F0800128
:10426000C3F3C01323701369494803F40042C3F336
:10427000C033037000296FD0002A0CBF6425662567
:10428000444E3068002869D106F0F0FF30602846BF
:10429000FFF748F85320FFF745F822783E4B002AF5
:1042A00062D04FF480223D4C9A61206807F022F8DA
:1042B00040F6B83398422BD923684BB3384D0026CB
:1042C000AB78ADF8006083F01002C2F3001262F325
:1042D0000413AB7082238DF80230009802F026FFA1
:1042E000304BC0F30721C0F307428DF805008DF86D
:1042F00006208DF80410187059709A70FF20012361
:10430000FA220199FFF762FF286801F081FE26601A
:10431000254B264D1A692878120427D51C6914F4F8
:10432000804423D100F0F5FD02282AD0287800F03F
:10433000F0FD032825D0022000F04DFD002002B042
:10434000BDE8704001F0BBB9002A83D04FF0804235
:104350002021916100227CE7652591E706F0CAFFE4
:10436000B0F57A7F90D898E704229CE700F0D1FD61
:10437000022801D10020DFE7287800F0CAFD0328D9
:10438000F8D002B070BD00BFC81E0020ED1E002096
:10439000EC1E0020C41E0020000C0040C03A00208B
:1043A00010440020B83A002000080040251F0020DB
:1043B000002382B0ADF804308DF80630FA220123D4
:1043C000FF20019902B0FFF701BF41F2100307B5CA
:1043D000ADF8043010238DF80630FA220323FF20B5
:1043E0000199FFF7F3FE012003B05DF804FB000024
:1043F0001822124B82B002FB0030837C6E2B0ED150
:10440000427CC2B9C27CB2B9ADF804308DF8062046
:104410000123FA22FF20019902B0FFF7D7BE53B95A
:10442000437C6E2B07D1C37C2BB9ADF804306F23CE
:104430008DF80630ECE702B0704700BFC43A0020A8
:10444000094A0023114610B5147C844206D1182273
:1044500053430022C818C260CA5410BD0133632BF5
:1044600002F11802F0D1F8E7C43A002073B505460E
:104470000C46FFF707FC002800F0D08021462846B4
:10448000FFF722FB0646002800F0C88047F62A0303
:104490009D4200F29B8047F620039D4221D8522D79
:1044A00050D84E2D3AD8162D00F06C8241D8042DEC
:1044B00000F05C82072D00F06D82304602B070BDC6
:1044C000A5F5FC45063D082D00F25181DFE815F009
:1044D000670172018001BE0015022002A100900256
:1044E0008202A5F5F045213D092DE6D801A353F838
:1044F00025F000BF0F480008BB44000877480008BB
:10450000BB440008FB46000811470008A14600080C
:10451000C1460008654600087D460008A94B503D8D
:104520009B78022D00F24A82DFE815F03C0242023D
:104530004E021A2DC1D1A34B9B781B07BDD552202B
:1045400063791AE2E72D00F0BB8112D8E32D00F069
:104550009A81E42D00F04182C12DAED16379E02033
:10456000002B00F0598200F04BFD522000F048FD76
:1045700054E045F202239D4200F0D68047F2130337
:104580009D424DD0B5F5A44F97D16379002B45D00E
:1045900000213620FFF754FF4FF6FF738A4CADF829
:1045A00004308DF80630FA22032335200199FFF7F5
:1045B0000DFE207800F0ADFC022840F0AE80002017
:1045C00000F009FC002001F07AF827E047F60E63BE
:1045D0009D423FF672AF47F604639D423FF670AFCF
:1045E000B5F5F84F0CD047F603439D427FF465AF15
:1045F0006379764C002B33D006F038FE20600DE056
:104600006379002B3FF459AF01F0D5FC06F08AFE28
:1046100053E7637913B16220FEF784FE00264CE76E
:10462000FDF7F2FD0028F9D16379002B3FF445AF87
:104630004FF4DC43ADF8043000238DF80630FA2245
:104640000123FF200199FFF7C1FD36E7FDF7DCFDEF
:104650000028E3D16379002BE0D0FFF777FBDDE79B
:104660002360DBE76379002B3FF427AF04F0A8FF5A
:10467000FF287FF422AFFFF79BFE1EE76379002B34
:104680003FF41BAF04F09CFF6628F4D804F098FFB9
:10469000332801D0FFF78CFE332004F089FFBDE7FB
:1046A0006379002B3FF409AF04F050FE4FF08043D4
:1046B00020229A6104F0FEFEFF283FF4FEAEDAE706
:1046C0006379002B3FF4F9AE04F0F4FE1A280ED8FB
:1046D0004FF080434FF4001200249A6100232046DB
:1046E0001A461946013403F025FA532CF6D104F08A
:1046F000E1FE00283FF4E1AEBDE76379002B8DD0E9
:104700000120FDF701FEFF2888D0FFF751FE85E765
:104710006379002B82D00020F3E7207800F0F9FBCA
:1047200003287FF47BAF4AE76379002B3FF476AF31
:1047300000213520FFF784FE4FF6FF73224CADF8C1
:1047400004308DF80630FA22032336200199FFF752
:104750003DFD207800F0DDFB02283FF45FAF2078BC
:1047600000F0D7FB03283FF459AF022028E7637914
:10477000002B3FF453AF0020124C237823F0F003BA
:104780002370FDF7EFFC20780009FDF753FC20684B
:1047900001F03EFC20780009FDF706FD3EE7637955
:1047A000002B3FF43BAF0120064C237860F3071346
:1047B0002370E6E76379002B3FF430AF014C022011
:1047C0002378F3E710440020251F0020E81E002076
:1047D0006379002B3FF422AF04F004FE2D287FF410
:1047E0001DAFFDF711FD04468D4B187800095CB92B
:1047F000FDF7F0FC8B4B1C7006F038FD224621467D
:104800002046FDF78FFC09E7FDF714FC06E7637906
:10481000002B3FF403AFFFF7CBFD04F0E3FD2D28A1
:10482000814D21D1FDF7F0FC7D4C50B1207800097D
:10483000FDF798FC20780009FDF7FCFB0022794B7E
:104840001A706078FF2808BF0D2004F0C8FD2068AA
:1048500001F0DEFB04F00AFEC0F307232870C0F36A
:1048600007406B70A870D9E6704C2046FDF724FD18
:1048700054F8010CECE76379002B3FF4CFAE012034
:10488000FDF742FDCAE66A4D287800F042FB022897
:104890000FD1684B1B78DB067FF50FAEFDF7B4FC3C
:1048A00000287FF40AAEE32063791BB300F018FA06
:1048B00003E6287800F02DFB03287FF4FEADE8E73F
:1048C0005B4D287800F025FB02280CD1594B1B7852
:1048D000DD067FF5F2ADFDF797FC00287FF4EDAD26
:1048E000E7206379E1E7287800F013FB03287FF4E1
:1048F000E4ADEBE700F00AFADFE5494B4E4A1B78DE
:1049000013F00E0318BF637903F00103137085E6FB
:104910006379002B3FF482AE414CA37883F0080208
:10492000C2F3C00262F3C303A3700023ADF80030EA
:1049300082238DF80230009802F0F8FB3F4BC0F361
:104940000721C0F307428DF805008DF806208DF889
:104950000410187059709A70FF200123FA220199EF
:10496000FFF734FC206801F053FB57E62C4B9B7893
:1049700018077FF5A2AD50206379002B35D000F0E9
:10498000AFF94BE6264B9B7819077FF596AD512082
:104990006379F2E7224B9B781A077FF58EAD4F20A3
:1049A0006379EAE71D077FF588AD04206379E4E7C2
:1049B00018077FF582AD16206379DEE719077FF5CA
:1049C0007CAD07206379D8E71A077FF576AD1A200A
:1049D0006379D2E763791A4C0CE6114B9B78DB06BE
:1049E0007FF56BAD65206379C7E700F08FF915E6B9
:1049F000637953B1E32000F003FB2C2000F000FBAF
:104A00004FF4FA6007F04BFE08E62C2000F040FB64
:104A1000E32000F03DFB01E600F03AFB5220F8E70E
:104A200010440020BC3A00200C4400201144002017
:104A3000251F0020204400209C3A0020B83A002086
:104A4000C03A0020F8B500252E461D4C237873B1DE
:104A5000606806F04FFCA368984212D306F006FC8B
:104A6000E36860604BB9636926706660C3B901355D
:104A7000632D04F11804E9D1F8BD013BE360002B7C
:104A8000F1D0E368207C13F0010311D0FF28A77C4C
:104A9000617CE37C07D11A46384603F0B7F8E6E7B5
:104AA000E8B29847E3E70A46394603F043F8DEE701
:104AB000FF281A4602D119461846EEE71946F4E7D0
:104AC000C43A002010B500240D4B1C7001F0FCFA14
:104AD00002F0FEFF01F092FA0A4B188064F3C7104F
:104AE0001870188801F08DFAFFF76FFC38B106F0E6
:104AF000BDFBFDF797FCBDE81040FEF719BF10BDE8
:104B0000880C002020440020354B37B51D7895B126
:104B1000822300248DF80630ADF80440019802F09D
:104B200005FBC0F30742C1B2C0F3072003F06EF8E3
:104B3000204603B030BD2B4C206840B106F0DAFBB4
:104B400040F6B833984202D9FFF7BCFF256006F063
:104B5000ADF9820705D5202334201A46194602F004
:104B6000E9FF214C207800F0D4F902280ED02078FB
:104B700000F0CFF9032809D01C4B1B78DB0605D5C4
:104B8000202350201A46194602F0D4FF184CFFF794
:104B900053FA237863B9174D286806F0ABFBB0F5DC
:104BA000FA6F16D90123237006F060FB286010E02D
:104BB000114B1B786BB9FDF727FB38B9FFF790FA5B
:104BC000FFF7B8FA06F052FB0A4B18602378002B67
:104BD000E1D0FFF737FFFDF7CFFB0120A9E700BFCA
:104BE000E61E0020E81E0020251F00202044002093
:104BF000880C0020840C0020EE1E002008B50C4B11
:104C000000209A78197802F00702C1F34201FDF7FB
:104C100069FC04F04FFC4FF0804328B120229A61D8
:104C20000422044B9A6108BD4FF40012F7E700BF5D
:104C300010440020000C004004280DD805290BD892
:104C40000E2A09D85A23C1EB011103FB0010034BB4
:104C5000024433F812007047012070476CEE0008E0
:104C6000042808D839B9054B82F0010202EB400054
:104C700033F8100070470120704700BF88EB000830
:104C8000A0F58072B2F5F85F03461FD213F4805F7F
:104C900000F4007103F48062C0F3002003F40063A9
:104CA0000AD0000109B140F020000AB140F04000F4
:104CB0006BB140F08000704709B140F002000AB1CA
:104CC00040F004001BB140F008007047002070471E
:104CD00010B50C46FFF7D4FF2346BDE81040184737
:104CE000A0F1E003072B10B5044600D940B92046D7
:104CF0000449FFF7EDFFE0B2BDE8104000F080B9D5
:104D00000149F6E7515100087555000810B50446F1
:104D1000C0B200F0BDF9A4F1E003072B00D92CB913
:104D200003492046BDE81040FFF7D2BF0149F8E72C
:104D300063510008875500080120704708B5FFF748
:104D4000FBFF08BD704708B5FFF7FCFF08BD00007A
:104D500013B502AB03E903000F4B1B78B3B99DF801
:104D6000053073B16AB100F055FD04460146009864
:104D700000F012FD2046009902B0BDE8104001F09D
:104D800095BB009800F028FD0446F3E7009800F07A
:104D900041FD0099F0E700BFFC1E0020034610B45F
:104DA00000885C880A4640EA0440998810BCFFF7F6
:104DB000CFBF10B504460121FFF7F0FF2146FFF7F2
:104DC000BDFF10BD10B504460021FFF7E7FF2146E7
:104DD000FFF7B9FF10BD10B501248440E4B22046AE
:104DE00001F008F92046BDE8104000F03CBC01206D
:104DF000704708B5FFF7FBFF08BD10B5044600F08B
:104E0000E3FB2046FFF7F5FFBDE8104046F2A8108F
:104E100007F045BC08B50120FFF7EFFFBDE80840EB
:104E200006F080BA08B50020FFF7E7FFBDE80840AC
:104E300006F09EBA38B501210546FFF7AFFF2946B7
:104E4000044605F0BBFE002840D029462046FFF767
:104E50000DFBD8B32946204605F0BAFDB0B329466C
:104E6000204605F00FF988B32946204605F0E4F8FE
:104E700060B32946204604F011FC38B32946204689
:104E800005F0F4FD10B36B797BB147F65A439C42B1
:104E900023D00ED847F601439C421BD047F603436C
:104EA0009C4215D0B4F5F84F0ED02846FDF768FEA9
:104EB0000DE047F65B439C4212D047F65C439C42B0
:104EC000F3D101F065F8F0E7FFF7A4FF002038BD4B
:104ED00001F071F8FFF7A6FFF8E701F065F8E4E7E5
:104EE00001F065F8E1E708B5FEF798FD04F028F950
:104EF00000F032F8BDE80840012004F0DFB908B541
:104F000000F02FF8002004F0D9F9BDE80840FEF7C2
:104F10008CBD0246030906BF1846134604209A08B2
:104F20001EBF13460230C0B25B081CBF0130C0B2C6
:104F3000704701207047704738B50546FFF7F9FF05
:104F4000044610B12846FFF7F6FF204638BD7047EB
:104F500008B5FFF7F1FF08BD08B50020FFF7F8FF1F
:104F600008BD08B505F09AFFFFF7F2FF08BD000085
:104F700010B505F093FF074B04461A78824207D01C
:104F8000187006F073F9044B18602046FFF7E0FF35
:104F900010BD00BFF41E0020F81E00201FB56C4697
:104FA00084E803009DF805300BB100F0F1FE00230A
:104FB000ADF80E3094E80300ADF80C10C9B20290C1
:104FC00002AC29B994E8030000F03CFE04B010BD27
:104FD0002046FFF7EEFE0028F4D1F7E70379012B16
:104FE00002D1008800F036BC704708B529B105F041
:104FF000ADF9BDE8084005F087BA05F0F9F9F8E722
:1050000010B50446002840D0031FDBB2A02B0ED8F9
:1050100005F0CCFF20B1204606F052F800F050FF1A
:10502000204606F033F8BDE8104000F049BF00F11B
:105030002003DBB2072B07D800F007040120A040B3
:10504000C0B200F07FFEEEE700F15B03DBB2022BA3
:1050500005D8BDE81040243880B205F047BF00F104
:105060005803DBB21A2B06D8BDE81040074A32F8C5
:10507000130005F057BF3334E4B2122C05D805F005
:1050800065F9BDE8104005F03FBA10BDF0F1000829
:1050900008B50346A0B3021FD2B2A02A05D806F075
:1050A0000FF8BDE8084000F00BBF00F12002D2B2BB
:1050B000072A07D800F0070301209840C0B200F08B
:1050C00049FEEEE700F15B02D2B2022A04D8BDE845
:1050D0000840002005F00ABF00F15802D2B21A2A97
:1050E00004D8BDE80840002005F01CBF3333DBB214
:1050F000122B05D805F07CF9BDE8084005F004BA8C
:1051000008BD000038B50C460546FFF779FF94B19D
:1051100040F2E73309494FF47A72A4FB0141E018E9
:1051200041F100010023FBF761F807F0B8FA2846C7
:10513000FFF7AEFF38BD0120F7E700BFA0860100F2
:1051400008B539280CBF50210021FFF7DBFF08BD4F
:1051500008B528B100F0F6FDBDE8084000F0B0BE8B
:1051600008BD08B528B100F0F5FDBDE8084000F025
:10517000A7BE08BD2DE9F843877981460C464579DD
:1051800000F0D0FD3F09064608B32E46FDB1C4F33A
:10519000072303F0F002402A0CD0E1B201F1200213
:1051A000D2B2072A25D903F0E003202B02D101292E
:1051B0001FD907B3A44B5E7816F0040607D002206F
:1051C00000F0B6FE00F0AEFD80F00106F6B2C4F3CA
:1051D00003330B2B3DD8DFE813F010001000540010
:1051E0005400AE00C5003C003C00CA002C01400148
:1051F00040010026EBE73E46E9E7C4F30723C4F38A
:1052000003270F2B88BF3F01E4B285B157B104F1EA
:105210002003DBB2072B384600D92CB900F092FDF1
:1052200000F04EFE20464CE000F0A2FDF8E72046DC
:10523000FFF72EFF6FB104F12003DBB2072B3846D6
:1052400000D914B900F086FD01E000F099FD00F0EE
:1052500037FE002E00F0598100F05CFD10F00100D7
:1052600040F0538189F8050000F04EFD00F02EFA61
:10527000484600F061F900F047FDBDE8F84300F052
:105280002FBAC4F3072303F0F003C4F30328202B41
:10529000E4B218BF4FEA08182CB1012C34D0002D0D
:1052A0003CD0DFB1BEE7684B5B78590714D45DB1E1
:1052B000B8F1000F04D0404600F044FD00F000FEBD
:1052C0000020FFF79DFEC4E72846FFF7E1FEB8F196
:1052D000000FBED04046B5E755B11FB94046FFF7B5
:1052E00037FFB6E7012FB4D1404600F071FDB0E7BB
:1052F000002FAED14046FFF734FF404600F076FD68
:10530000404600F051FDA4E715B1052FA1D8E5E70F
:10531000042F9ED84046FFF724FF9AE7002FF9D0CC
:10532000392C0CBF4FF4FA50012007F0B8F9204691
:10533000FFF7AEFE8DE714F4406FC4F3812307D06E
:10534000012B86D165B1C4F3090005F0EBFD80E7C0
:1053500025B1C4F3090005F0C9FD7AE72846FAE74C
:105360002846F2E72946E0B2FFF73FFE71E714F462
:10537000407F2DD1F5B914F0100018BF0F20C4F3F1
:1053800042134FEA8303DBB21CBF9840C04304F0D2
:105390000F0202FA03F2C4F3812418BFC0B2D2B2E2
:1053A000022C40EA02000DD0032C0ED0012C06D0B6
:1053B00000F064F905F072FDFFF7CAFD49E700F05F
:1053C00055F9F7E700F062F9F4E700F04CF9F1E77E
:1053D000C4F301220DB3D207ECD514F0100318BFAB
:1053E0000F20C4F342124FEA8202D2B21CBF904097
:1053F000C04304F00F0101FA02F1C4F3812418BF85
:10540000C3B2C9B2022C43EA01000CD0032C0DD068
:10541000012C05D000F080F9CCE7012ACAD9DCE7DD
:1054200000F072F9C6E700F07FF9C3E700F03CF93D
:10543000C0E7E7B2C4F3032445B1204600F046F9C3
:105440003846FFF785FEB5E7204400203846FFF7D1
:1054500088FE204600F044F9ACE75FFA84F8A8F132
:10546000F003042B38D8DFE803F003210D141D00EE
:1054700035B1042F9ED8C4F3042000F03BF999E71E
:10548000052FF7E7C4F30420002DE3D100F01EF947
:1054900090E725B1C4F3042000F011F98AE700F089
:1054A0000BF987E71A4B5B785B0704D4C4F304203D
:1054B000002DCFD0EAE72DB10321C4F3042000F082
:1054C00015FD77E7012000F033FD012F7FF672AF65
:1054D000022000F02DFD6DE73DB11FB14046FFF702
:1054E0008FFD67E7C4F30420D0E75FB1B8F1390F4F
:1054F0000CBF4FF4FA50012007F0D1F84046FFF7F7
:10550000C7FD57E7C4F30420A4E7BDE8F88300BF54
:105510002044002038B501880446407900F0A6F9FF
:10552000054600F009F900F09DF829462046BDE83F
:105530003840FFF71FBE0000037910B50446B3B131
:10554000FFF778FC68B900F0EDFB80B1637973B1C7
:10555000074B5B785B070AD5BDE81040022000F0DE
:10556000E7BC2046FFF7D6FF2046FFF72BFC10BD17
:105570002044002008B528B100F0FAFBBDE808403F
:1055800000F09EBC08BD08B528B100F0F9FBBDE8ED
:10559000084000F095BC08BD08B5002005F0A6FC49
:1055A000002005F0BFFC00F0F3FB00F089FC04F0E4
:1055B000C7FFBDE8084004F0A7BF08B505F09AFD95
:1055C000BDE80840FFF7E8BF08B500F0CBFBBDE839
:1055D0000840FFF7F2BFC0F30333062BC2B213D06B
:1055E00094BF0E33063303F00F03012B10D8F02ABB
:1055F00010D004D8E72A8CBF002001207047F42A7D
:1056000014BF002001207047E72A03D9F12AF7E7E9
:10561000002070470120704708B50346007930B17B
:10562000188800F017F9BDE80840FFF7D4BF08BD9F
:1056300082B002AB03E9030002B0704782B002AB54
:1056400003E9030002B07047704708B5FFF7FCFF9D
:1056500008BD000008B5FFF7F8FF014B187008BD42
:10566000251F00207047FFF7F5BF0000024B1B7895
:105670001843FFF7EFBF00BF251F0020024B1B7828
:105680001840FFF7E7BF00BF251F0020024B1B7823
:105690005840FFF7DFBF00BF251F0020704708B547
:1056A000FFF7FCFF08BD000008B5FFF7F8FF014B4E
:1056B000187008BD241F00200020FFF7F5BF01234C
:1056C00003FA00F0C0B2FFF7EFBF00000123034A66
:1056D000834010781843C0B2FFF7E6BF241F0020B4
:1056E0000123034A8340107820EA0300FFF7DCBF60
:1056F000241F00200123034A834010785840C0B281
:10570000FFF7D2BF241F0020024B1B781843FFF77E
:10571000CBBF00BF241F0020024B1B781840FFF7AF
:10572000C3BF00BF241F0020024B1B785840FFF767
:10573000BBBF00BF241F0020704701F00703C9084A
:1057400030B501EB4101012401390A4400219C409C
:10575000E4B212F8015F20FA01F343F300036B4057
:10576000234001315D4003291570F2D130BD002284
:1057700010B500F00704C00800EB400001441046DB
:105780008B5CE34003F00103934001321843032A8A
:10579000C0B2F5D110BD000017B40C46C1B2C0F3C1
:1057A000072005280BD80E290FD8C0EB00100144A4
:1057B000074A89B2204603B010BCFFF7BEBF031DE5
:1057C000DBB2012B01D8034AF4E703B010BC7047E9
:1057D000001F0020FD1E0020C3B2C0F307200528D3
:1057E00082B009D80E2B0ED8C0EB00101844074920
:1057F00080B202B0FFF7BBBF0430C0B2012802D8AC
:1058000018460349F5E7002002B07047001F00204A
:10581000FD1E002073B504240C4BADF804001E7867
:105820000B4B1B781E4346FA04F3DB0705D4013CFF
:10583000F9D20025284602B070BDE5B2284601998C
:1058400000F051FE80B20128F1D0F3E7241F0020C0
:10585000251F002007B5ADF804000198FFF7DAFF17
:10586000019903B05DF804EB00F03DBE13B5104B99
:10587000ADF804101B782BB1019802B0BDE81040C0
:10588000FFF7E8BF70B10198FFF7C4FF0446014677
:105890000198FFF781FF2046019902B0BDE8104052
:1058A00000F021BE0198FFF797FF0446F3E700BF21
:1058B000FC1E002010B5012404FA02F204FA01F1E2
:1058C0001143CAB20140914204FA03F406BF2043D7
:1058D000C0B2A04310BD000008B513460A460146F9
:1058E00003480078FFF7E6FFBDE80840FFF7DCBE9D
:1058F000241F0020F8B50C4B0C4E1C780C4D33784F
:10590000A34200D1F8BD05EBC40335F834005F882D
:105910009A88D98840EA074042EA01410134FFF7FA
:105920008DFE04F00704EAE7261F0020271F002051
:10593000281F0020064B10B418885C889A88D988E4
:1059400040EA044042EA014110BCFFF777BE00BFC5
:10595000681F0020194AF8B593790F2B0AD853799C
:1059600043B1174B17491B780D7816885788164C8A
:10597000AB4200D1F8BD04EBC3010879D0B134F8D3
:105980003300B04216D14879A0B94888C01B80B214
:10599000C7280FD80120937960F3071393718B798F
:1059A00060F3071305488B71FFF7C6FDBDE8F840AB
:1059B000FFF7A0BF013303F00703D9E7681F0020FA
:1059C000261F0020271F0020281F0020F0B50D4BA8
:1059D0000D4C1B7826780D4CB34201D10020F0BD50
:1059E00004EBC3056F788F4206D114F833708742F9
:1059F00002D16D79954203D1013303F00703EBE740
:105A00000120ECE7261F0020271F0020281F002070
:105A10002DE9FF47E9460446894D014606224846DE
:105A2000FAF70EFF2B7994F8008061786779B4F863
:105A300002A02279C3B9002A00F0C780002F00F02D
:105A4000F6802046FFF7E8FD002800F0F0800822ED
:105A500021462846FAF7F4FE2846FFF7BFFAFFF77B
:105A600079FFFFF767FFB0E06B886E79AAEB03035D
:105A70009BB2002E00F0AB80C72B00F28480002A7E
:105A800000F0A380AB7928880F2B22884ED8904253
:105A900011D1002F45D1012262F30713AB71FFF73B
:105AA00049FF2846FFF748FDAB79A371002528463A
:105AB00004B0BDE8F087A7BB3A464046FFF786FF33
:105AC0004046FFF783FF05460028EFD10098FFF717
:105AD000C1FEC0F30332032AC3B208D8012A10D989
